:020000040800F2
:100000000004002081010008F10C0008F10C000838
:10001000F10C0008F10C0008F10C0008F10C0008CC
:10002000F10C0008F10C0008F10C00087107000841
:10003000F10C0008F10C0008F10C0008F10C0008AC
:10004000F10C0008F10C0008F10C0008F10C00089C
:10005000F10C0008F10C0008F10C0008F10C00088C
:10006000F10C0008F10C0008F10C00083107000841
:10007000F1060008B1060008710600083106000804
:10008000F1050008B1050008F10C0008F10C0008AA
:10009000F10C0008F10C0008F10C0008F10C00084C
:1000A000F10C0008F10C0008F10C0008F10C00083C
:1000B00001050008F10C0008F10C00081108000807
:1000C00031090008F10C0008F10C0008F10C0008DF
:1000D000F10C0008F10C0008F10C0008E10A00081E
:1000E000F10C0008F10C0008F10C0008F10C0008FC
:1000F000F10C0008F10C0008F10C0008F10C0008EC
:10010000F10C0008F10C0008F10C0008F10C0008DB
:10011000F10C0008F10C0008F10C0008F10C0008CB
:10012000F10C0008F10C0008F10C0008F10C0008BB
:10013000F10C0008F10C0008F10C0008F10C0008AB
:10014000F10C0008F10C0008F10C0008F10C00089B
:10015000F10C0008F10C0008F10C0008F10C00088B
:10016000000000000000000000000000000000008F
:10017000000000000000000000000000000000007F
:1001800072B6254880F3098824484EF60851CEF20D
:1001900000010860022080F31488BFF36F8F00F025
:1001A000EFFF01F0D5FC1E481E491F4A91423CBF9B
:1001B00041F8040BFAE71D49174A91423CBF41F848
:1001C000040BFAE71A491B4A1B4B9A423EBF51F8EF
:1001D000040B42F8040BF8E700201849184A914232
:1001E0003CBF41F8040BFAE700F08AFF00F0C0FFC3
:1001F000144C154DAC4203DA54F8041B8847F9E758
:1002000001F0FEF8114C124DAC4203DA54F8041B15
:100210008847F9E700F0A4BF0008002000000008AC
:100220005555555500000020000400200004002012
:100230007C1D0008000800200008002000080020A5
:100240006C0A00208001000880010008800100087D
:10025000800100082DE9F04FC1F80CD0C3689D461D
:10026000BDE8F08F002383F311882846A0470020C3
:1002700000F0F6FE00F024FF00DFFEE700000000C3
:1002800010B4202383F3118890F82030072B0ED868
:10029000DFE803F02B0D0D2708040D08436A9A6868
:1002A00001329A6090E80C001A60026853604FF0C7
:1002B000FF34002240F65C038168446280F820200D
:1002C000C2F200031B689A688A42FBD25A68002176
:1002D000036042601060586081F311885DF8044B40
:1002E0007047436A00221A60E1E7002383F3118814
:1002F0005DF8044B704700BFAFF30080AFF30080A0
:100300000B0730B4426B11D4036B0E2493E8030047
:100310000D6825F00F050D601B7C04FA03F330BC5B
:100320004360536843F400735360704772B640F6FD
:100330005C0341F6F032C2F20003C0F600029A629A
:10034000FEE700BFAFF30080AFF30080AFF30080A3
:1003500040F65C03C2F20003DA69F0B482420FD0C7
:10036000026841681C330A60026800249A425160A6
:10037000C46003D0018913890B441381F0BC70471A
:100380001168184640F81C1F81424FF0000408BF56
:100390004FF080434860D46008BFDC60EED04FF07F
:1003A0008040476A1689DC8C0D89BAB27319141B18
:1003B0009BB2A4B2A3420B81E0D91B1B9BB2012BC1
:1003C00098BF022313449BB24363D7E7AFF3008087
:1003D000F0B440F65C04C2F20004254655F81C3F18
:1003E0004FF08047D7F824C040F28126C0F60006BF
:1003F000012998BF0221AB420261C6601FFA8CF24C
:1004000026D0E68C951B4A1992B2AA4219891ADBAA
:100410008A423EBF9519ADB27D638A4205D91B68F9
:10042000521A198992B29142F9D359680360416016
:1004300008605860028118894FF6FF71821A1A818C
:10044000A184F0BC70471B68521A92B21989E4E784
:1004500001EB020C1FFA8CFC00260225E284E0610D
:100460002062036043600181C7F834C03E61FD60D3
:10047000E7E700BFAFF30080AFF30080AFF3008089
:100480004FF49043C4F20003DA6842F08002DA606D
:10049000704700BFAFF30080AFF30080AFF3008080
:1004A000202383F311884FF46D43CEF200035B6881
:1004B00013F4006302D183F311887047EFF30982CC
:1004C0004FF0807342F8043CA2F1200383F30988C3
:1004D00040F65C03C2F2000319689B6989689B6857
:1004E00099428BBF40F2752340F27823C0F6000397
:1004F000C0F6000342F8083C704700BFAFF300802D
:100500004FF080431A692DE9F041920703D4BDE80A
:10051000F041FFF7C5BF00221A61202383F3118841
:1005200040F65C044FF08045C2F200046A6AE08C39
:10053000E36992B2161A1989B6B28E4204F11C0709
:1005400024BF4FF0000820261CD31A680144BA4289
:10055000E184D9685760E261C3F80C8008BFC5F830
:100560000C8088F311881869884786F311886A6AB5
:10057000E08CE36992B2C0EB020C19891FFA8CFC83
:100580006145E2D9BB420AD00144891A89B20129E6
:1005900098BF02210A4492B24FF080435A6300236D
:1005A00083F31188BDE8F041FFF77ABFAFF3008015
:1005B0000023C4F2020319688022C4F20202090E69
:1005C000126801F00E01114210B509D040F6000288
:1005D000C2F20002146B080658600CB1506BA047C1
:1005E000BDE81040FFF75CBFAFF30080AFF30080C1
:1005F0000023C4F2020319686C22C4F20202090D3E
:10060000126801F00E01114210B509D040F6000247
:10061000C2F20002946A080558600CB1D06AA04783
:10062000BDE81040FFF73CBFAFF30080AFF30080A0
:100630000023C4F2020319685822C4F20202090C12
:10064000126801F00E01114210B509D040F6000207
:10065000C2F20002146A080458600CB1506AA04744
:10066000BDE81040FFF71CBFAFF30080AFF3008080
:100670000023C4F2020319684422C4F20202090BE7
:10068000126801F00E01114210B509D040F60002C7
:10069000C2F200029469080358600CB1D069A04707
:1006A000BDE81040FFF7FCBEAFF30080AFF3008061
:1006B0000023C4F2020319683022C4F20202090ABC
:1006C000126801F00E01114210B509D040F6000287
:1006D000C2F200021469080258600CB15069A047C8
:1006E000BDE81040FFF7DCBEAFF30080AFF3008041
:1006F0000023C4F2020319681C22C4F20202090991
:10070000126801F00E01114210B509D040F6000246
:10071000C2F200029468080158600CB1D068A0478A
:10072000BDE81040FFF7BCBEAFF30080AFF3008020
:100730000023C4F2020308221968C4F202021268FC
:1007400001F00E01114210B508D040F60002C2F2CD
:100750000002146859600CB15068A047BDE8104011
:10076000FFF79EBEAFF30080AFF30080AFF30080D1
:10077000EFF30983203383F30988002383F311887F
:10078000704700BFAFF30080AFF30080AFF300808D
:1007900030B4202383F3118840F6D403C2F200035F
:1007A0001D684C1E2A4422444942044402EA0100C6
:1007B00021405A680144914207D88D4205D81960FA
:1007C000002383F3118830BC70470020002383F39B
:1007D000118830BC704700BFAFF30080AFF30080DA
:1007E000002240F65C03816810B4C2F200030446A4
:1007F00080F820201B689A688A42FBD25A682046FB
:100800002360626014605C605DF8044B704700BF59
:1008100038B540F6B813C2F200035C6B0821A26938
:100820006569C0F2030145EA024222F07F428A4232
:1008300054D022D80121C0F203018A4242D00221C1
:10084000C0F203018A4210D16268DB6A22F40072AE
:100850005B6862601A6842F001021A60626842F4E2
:10086000805262605B68012B57D915F00A0F18BFE0
:10087000A369BDE83840FFF713BE8221C0F207012B
:100880008A4214D08421C0F207018A42EDD1DA6A8B
:10089000526852683AB3198C226841F0010142F45F
:1008A000A06219842260BDE83840FFF7F9BD626894
:1008B0001B6B22F400725B6862601A6842F00102EE
:1008C0001A60D2E71B8C1A0A0BD003F0010343F025
:1008D000F00302F006021A432261C6E71B8CC3F341
:1008E00047032361C1E76168202221F40071616040
:1008F000216841F40071216082F31188D86940F6C3
:10090000B813C2F2000320B100224262DA61FFF79D
:1009100067FF002383F31188A7E7236823F480632C
:100920002360A2E7AFF30080AFF30080AFF3008055
:10093000F8B540F6B813C2F20003586B1C6B45695A
:100940006168AAB202F45F46F64346610F680E265C
:1009500027F00F070F6094F810C0D96A06FA0CFC54
:1009600027684C68C7F804C0D4F800C00F682CF0A2
:100970000F0CC4F800C00C7C02F48071A64089B250
:100980007E6001B101219605996044BF41F00201EA
:10099000996054050BD5466841F0040426F40071B3
:1009A00041600668214646F4007606609C601705A3
:1009B00044BF41F008019960560444BF41F0200152
:1009C0009960D40444BF41F010019960280444BFE9
:1009D00041F04001996004D419B9BDE8F840FFF72F
:1009E0005FBD202282F31188D86940F6B813C2F2A5
:1009F000000330B16FF0010242620022DA61FFF7BA
:100A0000EFFE002383F31188BDE8F840FFF748BDEF
:100A1000F8B50F07436B26D4C26A0E2651681568D5
:100A20000F68202427F00F070F60127C06FA02F2ED
:100A30006A605A6822F480525A601A6822F480620E
:100A40001A601A6842F400721A6084F31188C3694C
:100A50002BB10022C26118465A62FFF7C1FE002383
:100A600083F31188F8BD72B640F65C0341F6F032AC
:100A7000C2F20003C0F600029A62FEE7AFF3008004
:100A8000F8B504680746A0420D4620D0002602E0D3
:100A90002468A7421BD0E3682B43E36015B12269A9
:100AA0001342F5D06068A268416B90F820300A4389
:100AB0000A2B42630CD00B2BEAD1436A1A409342B3
:100AC000E6D14662FFF78CFE2468A742E3D1F8BD69
:100AD000436A1A42DCD04662FFF782FEF4E700BFA9
:100AE0002DE9F84F40F6F015C2F200056E6FD6F80A
:100AF0000C903368D9059CB200F19480202383F3D5
:100B0000118814F02F0F57D040F6F01BC2F2000BE3
:100B10000BF10C0C4FF0000809E0A106776895F87E
:100B200078A01FD43468A4B214F02F0F44D0220749
:100B3000F3D014F0080F14BF80210021E30748BF51
:100B400041F02001A70748BF41F04001600748BFBE
:100B500041F480716048FFF793FFA106776895F82C
:100B600078A0DFD5DBF81430002B49D02B6A6A6AF5
:100B700093424DD069695A1C0AEA070701312A627B
:100B800069611F702A6AEB699A4203D3DBF8183057
:100B9000CBF82030EB686345C4D01A681846CBF810
:100BA0000C20C2F804C0C3F82480FFF719FE346893
:100BB000A4B214F02F0FBAD1002383F3118819F0D7
:100BC000800F01D022063CD4630615D5202383F381
:100BD00011886A6CAB6C40F6F0109A42C2F20000C9
:100BE00063D04FF6BF7309EA03036FF04002F3606E
:100BF0000023326083F31188BDE8F84FFFF750BC43
:100C000035480421FFF73CFF2B6A6A6A9342B1D151
:100C1000DBF81420002AADD02F484FF48061FFF795
:100C20002FFF7FE7202383F311884FF40071281DE5
:100C3000FFF726FF6FF480733360002383F311887E
:100C40005CE7202383F31188AB6C6A6C40F6F010EC
:100C50009A42C2F2000030D0AA6B286C591C0132B3
:100C6000AA63A96440F6F012814293F800C0C2F270
:100C7000000201D3D36B936440F6F013C2F2000379
:100C80002A6B03F130018A4209D017684FF0000E39
:100C90001F6310467960C2F824E0FFF7A1FDC6F893
:100CA00004C0002383F311888EE7836B002B98D058
:100CB00004301021FFF7E4FE93E7826B002ACBD0CB
:100CC00004300821FFF7DCFE4FF63F7309EA030307
:100CD00043F04003F360E4E7F4090020AFF3008041
:100CE000FEE700BFAFF30080AFF30080AFF30080FA
:100CF000FEE700BFAFF30080AFF30080AFF30080EA
:100D000040F65C03C2F2000330B41A6899691468B3
:100D1000012581F82000636082F820501C60104695
:100D200030BC9A61FFF796BAAFF30080AFF3008052
:100D300030B54FF6FF73994287B0054613D040F6A1
:100D40005C04C2F20004A26901A8FFF741FB284637
:100D5000FFF7D6FF049B13B101A8FFF7F9FAA369C7
:100D6000586A07B030BDFFF7CBFF40F65C04C2F213
:100D70000004A369586A07B030BD00BFAFF300801C
:100D800010B4024671B140F65C03C2F2000344683D
:100D90009B69042083E81400236053605DF8044BD2
:100DA000FFF7C6BF4FF0FF305DF8044B704700BF40
:100DB00070B5202304460E4683F3118803E0FFF745
:100DC000DFFF00281BDBA56820463146002DF6D04A
:100DD000A2692169531CA0688B42A36100F1FF3016
:100DE00028BFE368A060157828BFA361E3690BB151
:100DF00020469847002383F31188284670BD85F369
:100E0000118870BDAFF30080AFF30080AFF30080B6
:100E10000C30FFF7CDBF00BFAFF30080AFF3008011
:100E20000C304FF6FF71FFF7C3BF00BFAFF3008078
:100E30002DE9F04F984683B0044689461546C769A8
:100E4000202383F311884FF080435A6A08F1FF3B57
:100E5000424492B2002601921FFA8BFBA3680BB3A7
:100E6000A369A1685A1C0139A261A1601B7809F12C
:100E7000010A89F800302369A2699A4224BFE36815
:100E8000A3610FB12046B847002383F31188013DC9
:100E900006F101061AD0202282F31188A368D146F8
:100EA000002BDDD14FF6FD72934513D84FF08042F1
:100EB000516A019A511A89B2884505D32046FFF735
:100EC0005FFF0028CAD0002383F31188304603B0A7
:100ED000BDE8F08F20464146FFF752FF0028BDD005
:100EE000F1E700BFAFF30080AFF30080AFF3008005
:100EF0000C30FFF79DBF00BFAFF30080AFF3008061
:100F00000C304FF6FF73FFF793BF00BFAFF30080C5
:100F1000F8B504460F461646202383F3118803E0F4
:100F2000FFF72EFF00281ADBA56820463146002D6A
:100F3000F6D06369A1685A1C01396261A1601F7013
:100F4000236962699A4224BFE3686361E3690BB174
:100F500020469847002383F311880020F8BD85F3CD
:100F60001188F8BDAFF30080AFF30080AFF30080CD
:100F70003030FFF7CDBF00BFAFF30080AFF300808C
:100F800030304FF6FF72FFF7C3BF00BFAFF30080F2
:100F90002DE9F04F984683B0044689461546C76947
:100FA000202383F311884FF080435A6A08F1FF3BF6
:100FB0004244002692B201921FFA8BFBB246A3680C
:100FC000FBB16369A1685A1C01396261A16099F89B
:100FD000002009F101091A70236962699A4224BF4D
:100FE000E36863610FB12046B8478AF31188013D79
:100FF00006F1010619D0202383F31188A368002B82
:10100000DFD14FF6FD72934513D84FF08042516AFD
:10101000019A511A89B2884505D32046FFF7B0FEE0
:101020000028CCD0002383F31188304603B0BDE8FC
:10103000F08F20464146FFF7A3FE0028BFD0F1E71E
:101040003030FFF7A5BF00BFAFF30080AFF30080E3
:1010500030304FF6FF73FFF79BBF00BFAFF3008048
:1010600038B50246202383F3118840F65C03C2F2B0
:1010700000039C69A06A04F12805A842626206D0B8
:101080000368A362FFF7ACFBA06AA842F8D194F80A
:1010900022304BB994F82130980701BF2269636967
:1010A0001A61226908BF53610F20BDE83840FFF77D
:1010B00027BE00BFAFF30080AFF30080AFF3008026
:1010C00040F65C02C2F20002106870B403689569D1
:1010D00001260021AC6813605A6080F8206090619E
:1010E00085F8201000E01B689A68A242FBD85A6875
:1010F00029462B606A6015605D6070BCFFF7AAB876
:10110000F0B4134E002506F17007A6F110011AC9BC
:10111000A3420DD204391A4651F8040F42F8040BC9
:10112000A242F9D3DA43144424F0030404342344E0
:1011300056F8042C934203D243F8045B9342FBD34A
:10114000BE4206F1100301D21E46DEE7F0BC704736
:101150000C1C0008AFF30080AFF30080AFF30080F9
:10116000FEE700BFAFF30080AFF30080AFF3008075
:10117000704700BFAFF30080AFF30080AFF3008093
:10118000704700BFAFF30080AFF30080AFF3008083
:10119000F8B50646202080F311880324490000207A
:1011A00031843470B060716B80F31188346BF06AF5
:1011B00067684568B46AD6F824C000203C60FA60CD
:1011C0004FF080447B60C5F800C0E8606860656AE5
:1011D0002022ADB201E080F3118882F311888B697F
:1011E0009B0702D40B689F050CD5636A5B1B9BB2FF
:1011F000312BF0D9052333704FF0FF30002383F3F8
:101200001188F8BD4B6840F65C0443F400734B60F2
:101210000868C2F20004A269334640F48070086096
:1012200043F81C2F53620320FFF76AFDA369586A35
:10123000441C1CBF02233370DCD0002383F31188CD
:10124000F8BD00BFAFF30080AFF30080AFF30080C4
:1012500008B50146202383F311880820FFF768FDB5
:10126000002383F3118808BDAFF30080AFF3008043
:1012700030B5054683B002200C46FFF7E9FF40F683
:10128000CC03E8B224F00F02C2F2000302435D78FF
:1012900042F0040140EA04108DF80410C0B2C5B158
:1012A00040F00C0441F0080142F0080240F0080050
:1012B0008DF804108DF805208DF806408DF8070094
:1012C0005B6801AA197A18680423FFF761FF03B06D
:1012D00030BD40F004018DF807008DF806108DF840
:1012E0000520EDE7AFF30080AFF30080AFF300809F
:1012F000F0B4457C012606FA05F740F65803C2F221
:1013000000031C68274218BF304643D140F6000650
:10131000C2F2000606EBC50746F835107A60620691
:1013200002BF4FF48052C4F202025569076804BF3D
:1013300045F00105556142684FF00E0C156825F027
:101340000F051560067C85680CFA06FC2C424FF0F0
:101350000006C7F804C0166015D1A1B1827C012532
:1013600002F01F018D405109890001F1604102F135
:10137000604201F5614102F56142502682F8006346
:10138000C1F880510D60427C012101FA02F2144340
:101390001C600020F0BC7047AFF30080AFF300800A
:1013A000002330B41A461C461946082510F0800F59
:1013B0004FEA01114FEA02124FEA04144FEA0313F5
:1013C0000CBF41F00F0142F00F0210F4004F0CBFB0
:1013D00044F00F0443F00F03013D4FEA4000E5D114
:1013E0004FF44060C4F2010045682C402343436041
:1013F000036830BC19400A4302607047AFF30080B5
:101400004FF48053C4F2020300224FF0FF311869F9
:101410002DE9804819611A61D868D960DA60D86905
:101420004FF4E04140F08050D861D869C4F2000127
:1014300040F00060D8610E6840F65805C2F2000521
:1014400046F4807641F6F04440F600000E6085B028
:101450002A60134611461546C0F60004C2F2000089
:101460006218526814318C291560C5504FF0000283
:1014700003F10803F4D113464FF0FF31C4F2020325
:101480004FF480505960C4F20200846948F6880A1B
:1014900044F07D048461D1464FF4006E48F2B84BAD
:1014A00044F684384FF4406748F64404C4F2010E11
:1014B000C4F20107C8F6880BCBF2B348CBF2B34AAB
:1014C000CEF68869C8F688044FF4805648F6330C87
:1014D0000094C4F20106CEF80C10C8F6880CCEF8C1
:1014E00004B040F6F013CEF80080F960C7F804A00D
:1014F000C7F800904FF088376FF44079C2F20003CC
:10150000C6F80C90DFF83CB6C6F804C04FF4A055FE
:1015100037604FF4C054009E41F6D04E40F6B818E4
:10152000C2F20008C4F20105C4F201049946C0F6F3
:10153000000E4FF4A84CE96003F10C0A6F60C4F28E
:10154000000C2E60E16008F10C056760ABF1140639
:101550002760012449F804EB4FF0100E5A61C3F8DC
:101560000490C8F834C0C8F82CB0C8F83060C8F887
:101570000C50C8F8105088F800401C72C8F80420BD
:10158000C8F81420C8F81C20C3F80CA0C3F838E031
:10159000C56903F1540740F281464FF49049C3F8FE
:1015A00010A09F615F621F6245EA040A03F1300CDC
:1015B00003F1640503F1740BC0F60006C4F20009E0
:1015C0004FF400579A62C3F840B0DE64C3F87490D9
:1015D000DD61DD639D645D64C3F830C0C3F834C071
:1015E000DB621B65CEF20407C0F81CA07D6845F6DF
:1015F000BF5A45F4006B40F65C034FF080454FF452
:10160000614640F63800C2F20003C7F804B0C2F2E7
:101610000000C5F828A0CEF200064FF0800C4FF075
:10162000805B4FF6FF794FF46D4AC5F82C90CEF2EF
:10163000000AAA616A63EA606A606C612C6086F8DD
:101640001CC3C6F880B1C6F800B01B605B609A602E
:10165000C3F834C083F84D20C3F868C01A6683F815
:101660004E4083F84C408260C260DAF80C504FF66E
:10167000FF064FF440742E4041F6B84BC0F2FA54C6
:1016800040F2917903F11C079984344303F154012A
:10169000C0F6000BC0F6000940F6D40540F6702CE9
:1016A00042F20006DF611F62C3F844B000EB0E0790
:1016B00003F12C0B5965C0F8009003F15801C2F2F8
:1016C0000005C2F2000CC2F200064EF6F059DA84B0
:1016D0005A669A64826107614761C3F810B0C3F823
:1016E00014B0C3F818B09965D965DB631B64C5F8FD
:1016F00000C06E60CEF20009CAF80C40D9F80C1098
:101700004FF48053CEF2000341F08071C9F80C1001
:101710001868202140F0010018608AF81FE08AF85C
:10172000221082F3118862B6202383F3118840F6D9
:101730005C02C2F2000240F6E003C2F200030124A0
:10174000D2F818E0C3F8984040F6E147DEF808C048
:10175000D2F8149003F16C0AC0F6000740F2652637
:1017600041F69845002103F19000C3F89CA0DF6684
:10177000C0F6000603F1BC074FF0020BC0F60005EF
:1017800003F1B80AC3F8A490C3F8AC30C3F8A020A2
:10179000C3F88C6083F8B0B0C3F8A850C3F8CC404D
:1017A00083F8B240196783F8B110C3F8C810C3F8C2
:1017B000C410C9F810005061C3F8B410C3F8B8A041
:1017C000C3F8BC70C3F8C070BCF1000F00F04281D8
:1017D00083F8B010126891680029FBD15468C3F8EF
:1017E0009020C3F894402060506081F3118840F647
:1017F000CC040023C2F200040122402041F68846B6
:101800002270636063700096FFF7CAFD41F67C4664
:1018100080200196FFF7C4FD009E40F6B819C0F67F
:1018200000060096019E4FF4805AC0F6000601960D
:10183000C24DC34EC2F20009C4F2020A009A01234B
:1018400063706260202383F3118898F800B0019BD5
:10185000BBF1010FD8F8347018BF41F67C40C8F8CE
:1018600004301CBFC0F600003B4600F00281D8F8EF
:101870002C10D8F83020D1F804C0D2F804B007F109
:101880001002CCF808204FF400414FF4106C4FF0D8
:10189000000ECBF808203960C7F800E0C7F804C094
:1018A0005A684FF6C071114090F808B0426859600C
:1018B000D3F804C048F2A061C0F201014CF0180C4A
:1018C0008A42C3F804C040F3C8804FF4D451C0F238
:1018D00006018A42C8BF72461BDCBBF1020F00F052
:1018E0001E81BBF1030F01BF02EB82024FF458517E
:1018F00002EB8202C0F26E1101BF91FBF2F26FEABD
:1019000082426FEA924292B218BF48F6FF720821F3
:101910001962DA6101781A68022992B200F0F9803E
:10192000032908BF42F00A0205D0012902BF22F0B4
:101930000A021204120C1A603B68022243F00103EF
:101940003B60002388F8002083F311883220FFF7E2
:101950007FFC302763684FF0340B8DF80D708DF8E5
:101960000CB0197A03AA18680223FFF711FC0520AE
:10197000FFF76EFC63688DF80D708DF80CB0197A66
:1019800003AA18680223FFF703FC0120FFF760FC9D
:1019900063688DF80D708DF80CB0197A186803AA79
:1019A0000223FFF7F5FB6368242120228DF80C1039
:1019B0008DF80D20197A03AA18680223FFF7E8FBB7
:1019C00063680020D97A1B7B41F6A047194341F098
:1019D0002001FFF74DFC00200821FFF749FC002003
:1019E0000121FFF745FC63680020597A9B7AC0F615
:1019F0000007194341F00C01FFF73AFC00200621D3
:101A0000FFF736FC0223802100202370FFF730FC13
:101A1000502101E0B74206D00120FFF729FC17F85A
:101A2000011F0029F6D1A821002041F6B047FFF799
:101A30001FFCC0F60007652101E0AF4206D001207F
:101A4000FFF716FC17F8011F0029F6D10A20FFF74F
:101A5000FFFBF3E68EF820C0FEE74FF45851C0F2CA
:101A60006E11520091FBF2F21921C2F30B021962BE
:101A70004FE79A228A23C9F82820C9F82430DAF8D7
:101A80001000002340F4001040F6112140F6B81277
:101A9000CAF81000C0F60001CAF81030C2F2000205
:101AA000D9F82C00FFF724FC40F2013140F6B812BF
:101AB000C0F60001C2F20002D9F83000FFF718FCAE
:101AC000DAF81C004FF46143CEF20003502240F4D8
:101AD00000104FF00041CAF81C0083F81F23C3F820
:101AE0008011196083F82023C3F884B1C3F804B0CF
:101AF000D9F82420D9F8283042F4405243F4405316
:101B0000C9F82830C9F82420D9F80400D9F83430AD
:101B1000ADE64FF6F771114041F002020BE74FF4CA
:101B2000585102EB4202C0F26E1191FBF2F26FEAE1
:101B300042426FEA524292B2E9E600BF081D000835
:101B4000201D0008681D0008AFF30080AFF300807F
:101B50004FF48053C4F202031A68194642F001029E
:101B60001A600A684FF480539207C4F20203F8D552
:101B70001968002201F0F901196019465A604A6893
:101B80004FF4805312F00C0FC4F20203F7D11A681D
:101B9000194642F480321A600A684FF48053900369
:101BA000C4F20203F8D55A68194642F480325A60EA
:101BB0001A6842F080721A600A684FF480539201EA
:101BC000C4F20203F8D54FF40052C4F2020210210D
:101BD0004FF480305860116059681A4641F0020194
:101BE0005960536803F00C03082BFAD1704700BF0B
:101BF000444D41206661696C757265007C1D00086A
:101C00006C0A00206C0A00206C0A00207C1D000871
:101C10000000000000000000000000007C1D000823
:101C20000000000000000000000000007C1D000813
:101C30000000000000000000000000007C1D000803
:101C40000000000000000000000000007C1D0008F3
:101C50000000000000000000000000007C1D0008E3
:101C60000000000000000000000000007C1D0008D3
:101C70000000000000000000000000000100000063
:101C8000A086010001000000B80900207C1C0008AB
:101C9000270000040801000069646C650000000072
:101CA00050726F666520706173656E6F730000001F
:101CB000656E20352E3000006D61696E00160220C1
:101CC000040244080C1014181C20212200000000FB
:101CD00051100008010F0008810F0008210E0008B4
:101CE000710F0008110E000841100008F10E0008E5
:101CF0000000024008000240010000000000000057
:101D000000000B00000002401C0002400200000026
:101D10000000000004010C000000024030000240FE
:101D2000040000000000000008020D000000024056
:101D30004400024008000000000000000C030E00F8
:101D400000000240580002401000000000000000A7
:101D500010040F00000002406C0002402000000050
:101D60000000000014051000000002408000024046
:0C1D7000400000000000000018061100F8
:04000005080001816D
:00000001FF
