:020000040800F2
:100000000004002081010008F1240008F124000808
:10001000F1240008F1240008F1240008F12400086C
:10002000F1240008F1240008F1240008B1190008A7
:10003000F1240008F1240008F1240008F12400084C
:10004000F1240008F1240008F1240008F12400083C
:10005000F1240008F1240008F1240008F12400082C
:10006000F1240008F1240008F1240008012200080E
:10007000C121000881210008412100080121000858
:10008000C120000881200008F1240008F1240008A4
:10009000F1240008F1240008F1240008F1240008EC
:1000A000F1240008F1240008F1240008F1240008DC
:1000B000E10D0008F1240008F1240008A122000845
:1000C000010D0008F1240008F1240008F1240008C3
:1000D000F1240008F12400088110000861100008D4
:1000E000F1240008F1240008F1240008F12400089C
:1000F000F1240008F1240008F1240008F12400088C
:10010000F1240008F1240008F1240008F12400087B
:10011000F1240008F1240008F1240008F12400086B
:10012000F1240008F1240008F1240008F12400085B
:10013000F1240008F1240008F1240008F12400084B
:10014000F1240008F1240008F1240008F12400083B
:10015000F1240008F1240008F1240008F12400082B
:10016000000000000000000000000000000000008F
:10017000000000000000000000000000000000007F
:1001800072B6254880F3098824484EF60851CEF20D
:1001900000010860022080F31488BFF36F8F01F024
:1001A0005FF800F07DFF1E481E491F4A91423CBF88
:1001B00041F8040BFAE71D49174A91423CBF41F848
:1001C000040BFAE71A491B4A1B4B9A423EBF51F8EF
:1001D000040B42F8040BF8E700201849184A914232
:1001E0003CBF41F8040BFAE700F0FAFF01F030F8E9
:1001F000144C154DAC4203DA54F8041B8847F9E758
:1002000002F07EF9114C124DAC4203DA54F8041B93
:100210008847F9E701F014B8000800200000000842
:100220005555555500000020000400200004002012
:10023000A82E000800080020180800201808002038
:100240000C0B0020800100088001000880010008DC
:10025000800100082DE9F04FC1F80CD0C3689D461D
:10026000BDE8F08F002383F311882846A0470020C3
:1002700000F066FF00F094FF00DFFEE781F0004130
:1002800002E000BF83F0004330B54FEA41044FEA7B
:10029000430594EA050F08BF90EA020F1FBF54EA16
:1002A000000C55EA020C7FEA645C7FEA655C00F0B2
:1002B000E2804FEA5454D4EB5555B8BF6D420CDD83
:1002C0002C4480EA020281EA030382EA000083EA06
:1002D000010180EA020281EA0303362D88BF30BDA6
:1002E00011F0004F4FEA01314FF4801C4CEA1131FC
:1002F00002D0404261EB410113F0004F4FEA03335B
:100300004CEA133302D0524263EB430394EA050FE5
:1003100000F0A780A4F10104D5F1200E0DDB02FA54
:100320000EFC22FA05F2801841F1000103FA0EF2E8
:10033000801843FA05F359410EE0A5F120050EF1AE
:10034000200E012A03FA0EFC28BF4CF0020C43FADF
:1003500005F3C01851EBE37101F0004507D54FF0EC
:10036000000EDCF1000C7EEB00006EEB0101B1F53C
:10037000801F1BD3B1F5001F0CD349085FEA300082
:100380004FEA3C0C04F101044FEA445212F5800F8D
:1003900080F09A80BCF1004F08BF5FEA500C50F12A
:1003A000000041EB045141EA050130BD5FEA4C0C0D
:1003B000404141EB010111F4801FA4F10104E9D196
:1003C00091F0000F04BF01460020B1FA81F308BF8D
:1003D0002033A3F10B03B3F120020CDA0C3208DD59
:1003E00002F1140CC2F10C0201FA0CF021FA02F134
:1003F0000CE002F11402D8BFC2F1200C01FA02F1A4
:1004000020FA0CFCDCBF41EA0C019040E41AA2BFC8
:1004100001EB0451294330BD6FEA04041F3C1CDA90
:100420000C340EDC04F11404C4F1200220FA04F0B0
:1004300001FA02F340EA030021FA04F345EA03015A
:1004400030BDC4F10C04C4F1200220FA02F001FA1C
:1004500004F340EA0300294630BD21FA04F029469E
:1004600030BD94F0000F83F4801306BF81F4801137
:100470000134013D4EE77FEA645C18BF7FEA655CAA
:1004800029D094EA050F08BF90EA020F05D054EA7C
:10049000000C04BF1946104630BD91EA030F1EBF81
:1004A0000021002030BD5FEA545C05D14000494185
:1004B00028BF41F0004130BD14F580043CBF01F578
:1004C000801130BD01F0004545F0FE4141F470015E
:1004D0004FF0000030BD7FEA645C1ABF1946104639
:1004E0007FEA655C1CBF0B46024650EA013406BF3A
:1004F00052EA033591EA030F41F4002130BD00BFF9
:1005000090F0000F04BF0021704730B54FF48064B5
:1005100004F132044FF000054FF0000150E700BF36
:1005200090F0000F04BF0021704730B54FF4806495
:1005300004F1320410F0004548BF40424FF0000182
:100540003EE700BF42004FEAE2014FEA31014FEAC5
:1005500002701FBF12F07F4393F07F4F81F0605114
:10056000704792F0000F14BF93F07F4F704730B583
:100570004FF4607401F0004521F0004120E700BF16
:1005800050EA010208BF704730B54FF000050AE09D
:1005900050EA010208BF704730B511F0004502D59E
:1005A000404261EB41014FF4806404F132045FEAA0
:1005B000915C3FF4DCAE4FF003025FEADC0C18BF45
:1005C00003325FEADC0C18BF033202EBDC02C2F13B
:1005D000200300FA03FC20FA02F001FA03FE40EACD
:1005E0000E0021FA02F11444C1E600BF70B54FF0CD
:1005F000FF0C4CF4E06C1CEA11541DBF1CEA1355AF
:1006000094EA0C0F95EA0C0F00F0DEF82C4481EA16
:10061000030621EA4C5123EA4C5350EA013518BF36
:1006200052EA033541F4801143F4801338D0A0FB23
:1006300002CE4FF00005E1FB02E506F00042E0FBD0
:1006400003E54FF00006E1FB03569CF0000F18BFD6
:100650004EF0010EA4F1FF04B6F5007F64F540747E
:1006600004D25FEA4E0E6D4146EB060642EAC62111
:1006700041EA55514FEAC52040EA5E504FEACE2E7E
:10068000B4F1FD0C88BFBCF5E06F1ED8BEF1004F81
:1006900008BF5FEA500E50F1000041EB045170BDFD
:1006A00006F0004646EA010140EA020081EA030141
:1006B000B4EB5C04C2BFD4EB0C0541EA045170BD3D
:1006C00041F480114FF0000E013C00F3AB8014F1B7
:1006D000360FDEBF002001F0004170BDC4F1000400
:1006E000203C35DA0C341BDC04F11404C4F1200581
:1006F00000FA05F320FA04F001FA05F240EA0200DC
:1007000001F0004221F0004110EBD37021FA04F611
:1007100042EB06015EEA430E08BF20EAD37070BDCB
:10072000C4F10C04C4F1200500FA04F320FA05F02A
:1007300001FA04F240EA020001F0004110EBD3702C
:1007400041F100015EEA430E08BF20EAD37070BD9C
:10075000C4F1200500FA05F24EEA020E20FA04F375
:1007600001FA05F243EA020321FA04F001F0004124
:1007700021FA04F220EA020000EBD3705EEA430E95
:1007800008BF20EAD37070BD94F0000F0FD101F0C4
:100790000046400041EB010111F4801F08BF013CFD
:1007A000F7D041EA060195F0000F18BF704703F03B
:1007B0000046520043EB030313F4801F08BF013DC2
:1007C000F7D043EA0603704794EA0C0F0CEA13557E
:1007D00018BF95EA0C0F0CD050EA410618BF52EA38
:1007E0004306D1D181EA030101F000414FF000003E
:1007F00070BD50EA410606BF1046194652EA43064C
:1008000019D094EA0C0F02D150EA013613D195EABF
:100810000C0F05D152EA03361CBF104619460AD107
:1008200081EA030101F0004141F0FE4141F4700111
:100830004FF0000070BD41F0FE4141F4780170BD01
:1008400070B54FF0FF0C4CF4E06C1CEA11541DBF66
:100850001CEA135594EA0C0F95EA0C0F00F0A7F868
:10086000A4EB050481EA030E52EA03354FEA013195
:1008700000F088804FEA03334FF0805545EA1313A8
:1008800043EA12634FEA022245EA111545EA106570
:100890004FEA00260EF000419D4208BF964244F107
:1008A000FD0404F5407402D25B084FEA3202B61A26
:1008B00065EB03055B084FEA32024FF480104FF4FA
:1008C000002CB6EB020E75EB030E22BFB61A75466E
:1008D00040EA0C005B084FEA3202B6EB020E75EB01
:1008E000030E22BFB61A754640EA5C005B084FEA69
:1008F0003202B6EB020E75EB030E22BFB61A754636
:1009000040EA9C005B084FEA3202B6EB020E75EB40
:10091000030E22BFB61A754640EADC0055EA060E01
:1009200018D04FEA051545EA16754FEA06164FEA44
:10093000C30343EA52734FEAC2025FEA1C1CC0D1F0
:1009400011F4801F0BD141EA00014FF000004FF07D
:10095000004CB6E711F4801F04BF01430020B4F13E
:10096000FD0C88BFBCF5E06F3FF6AFAEB5EB030CF6
:1009700004BFB6EB020C5FEA500C50F1000041EBF3
:10098000045170BD0EF0004E4EEA113114EB5C04C0
:10099000C2BFD4EB0C0541EA045170BD41F4801193
:1009A0004FF0000E013C90E645EA060E8DE60CEA9B
:1009B000135594EA0C0F08BF95EA0C0F3FF43BAFB8
:1009C00094EA0C0F0AD150EA01347FF434AF95EA6F
:1009D0000C0F7FF425AF104619462CE795EA0C0F53
:1009E00006D152EA03353FF4FDAE1046194622E720
:1009F00050EA410618BF52EA43067FF4C5AE50EAFA
:100A000041047FF40DAF52EA43057FF4EBAE12E7E9
:100A10004FEA410212F5001215D211D56FF4787326
:100A2000B3EB625212D94FEAC12343F0004343EAC9
:100A3000505311F0004F23FA02F018BF40427047A4
:100A40004FF00000704750EA013005D111F000402E
:100A500008BF6FF0004070474FF00000704700BFC4
:100A60004FEA4102B2F1E04324BFB3F5001CDCF1D0
:100A7000FE5C0DD901F0004C4FEAC0024CEA507008
:100A8000B2F1004F40EB830008BF20F00100704737
:100A900011F0804F21D113F13872BCBF01F000403A
:100AA000704741F480114FEA5252C2F11802C2F16C
:100AB000200C10FA0CF320FA02F018BF40F00100ED
:100AC0004FEAC1234FEAD32303FA0CFC40EA0C009F
:100AD00023FA02F34FEA4303CCE77FEA625307D1DC
:100AE00050EA01331EBF4FF0FE4040F44000704713
:100AF00001F0004040F0FE4040F40000704700BFAD
:100B00004FF0FF3C06E000BF4FF0010C02E000BFD9
:100B10004FF0010C4DF804CD4FEA40024FEA41037B
:100B20007FEA226C18BF7FEA236C11D001B052EA31
:100B3000530C18BF90EA010F58BFB2EB030088BFF7
:100B4000C81738BF6FEAE17018BF40F00100704766
:100B50007FEA226C02D15FEA402C05D17FEA236C48
:100B6000E4D15FEA412CE1D05DF8040B704700BF8F
:100B7000844608466146FFE70FB5FFF7C9FF002826
:100B800048BF10F1000F0FBD4DF808EDFFF7F4FF5F
:100B90000CBF012000205DF808FB00BF4DF808EDF8
:100BA000FFF7EAFF34BF012000205DF808FB00BF1B
:100BB0004DF808EDFFF7E0FF94BF012000205DF83D
:100BC00008FB00BF4DF808EDFFF7D2FF94BF0120EE
:100BD00000205DF808FB00BF4DF808EDFFF7C8FFE7
:100BE00034BF012000205DF808FB00BF4FEA40023F
:100BF000B2F1FE4F0FD34FF09E03B3EB12620DD94B
:100C00004FEA002343F0004310F0004F23FA02F0B4
:100C100018BF404270474FF00000704712F1610F5B
:100C200001D1420205D110F0004008BF6FF0004032
:100C300070474FF000007047000000000000000007
:100C40000B0730B4426B11D4036B0E2493E80300FE
:100C50000D6825F00F050D601B7C04FA03F330BC12
:100C60004360536843F400735360704772B640F6B4
:100C7000D80342F63052C2F20003C0F600029A6274
:100C8000FEE700BFAFF30080AFF30080AFF300805A
:100C90000A07F8B5436B26D4C26A0E265168156858
:100CA0000F68202427F00F070F60127C06FA02F26B
:100CB0006A605A6822F480525A601A6822F480628C
:100CC0001A601A6842F400721A6084F31188C369CA
:100CD0002BB10022C26118465A6201F0C9FA002302
:100CE00083F31188F8BD72B640F6D80342F630524D
:100CF000C2F20003C0F600029A62FEE7AFF3008082
:100D0000F8B540F65823C2F20003586B1C6B4569D6
:100D10006168AAB202F45F46F64346610F680E2688
:100D200027F00F070F6094F810C0D96A06FA0CFC80
:100D300027684C68C7F804C0D4F800C00F682CF0CE
:100D40000F0CC4F800C00C7C02F48071A64089B27C
:100D50007E6001B101219605996044BF41F0020116
:100D6000996054050BD5466841F0040426F40071DF
:100D700041600668214646F4007606609C601705CF
:100D800044BF41F008019960560444BF41F020017E
:100D90009960D40444BF41F010019960280444BF15
:100DA00041F04001996004D419B9BDE8F84001F060
:100DB00037B9202282F31188D86940F65823C2F24D
:100DC000000330B16FF0010242620022DA6101F0EB
:100DD0004FFA002383F31188BDE8F84001F020B9F1
:100DE0004FF080431A692DE9F041970703D4BDE81D
:100DF000F04101F015B900221A61202383F3118814
:100E000040F6D8044FF08045C2F200046A6AE08CD4
:100E1000E36992B2161A1989B6B28E4204F11C0720
:100E200024BF4FF0000820261CD31A680144BA42A0
:100E3000E184D9685760E261C3F80C8008BFC5F847
:100E40000C8088F311881869884786F311886A6ACC
:100E5000E08CE36992B2C0EB020C19891FFA8CFC9A
:100E60006145E2D9BB420AD00144891A89B20129FD
:100E700098BF02210A4492B24FF080435A63002384
:100E800083F31188BDE8F04101F0CAB8AFF30080E8
:100E90002DE9F04F466F0546D6F80CA0336883B0B5
:100EA000D8059CB200F18980202383F3118814F0C7
:100EB0002F0F50D005F1040805F10C074FF0000981
:100EC00009E0A106736895F878B01FD43468A4B21D
:100ED00014F02F0F3FD02107F3D014F0080F14BFE8
:100EE00080210021E20748BF41F02001A30748BF4D
:100EF00041F04001600748BF41F48071404601F075
:100F00005FFAA106736895F878B0DFD56A69002AA0
:100F100040D02A6A696A8A4246D068690BEA0303AC
:100F2000511C01302962686113702A6AEB699A4288
:100F300001D3AB692B62EB689F42C7D01A68184691
:100F4000EA605760C3F8249001F092F93468A4B2C3
:100F500014F02F0FBFD1002383F311881AF0800FF4
:100F600001D0220638D4630611D5202383F31188DB
:100F70006A6CAB6C9A4255D04FF6BF730AEA030312
:100F80006FF04002F3600023326083F3118803B0F6
:100F9000BDE8F08F04214046019301F011FA2A6A5E
:100FA000696A019B8A42B8D169690029B5D0404677
:100FB0004FF4806101F004FA88E7202383F311885D
:100FC0004FF40071281D01F0FBF96FF4807333605A
:100FD000002383F3118867E7202383F31188AB6C28
:100FE0006A6C9A4226D0A86B296C5A1C0130A863FF
:100FF000AA648A421F7801D3EB6BAB642B6B05F1BB
:1010000030029A4209D019684FF0000E2963184641
:101010004A60C3F824E001F02BF97760002383F3E2
:101020001188A0E7AB6B002BA6D0281D102101F082
:10103000C7F9A1E7AA6B002AD5D0281D082101F025
:10104000BFF94FF63F730AEA030343F04003F3602E
:10105000E4E700BFAFF30080AFF30080AFF30080A0
:1010600008B540F69020C2F20000FFF711FFBDE87E
:10107000084000F0D5BF00BFAFF30080AFF30080A1
:1010800008B540F65000C2F20000FFF701FFBDE8CE
:10109000084000F0C5BF00BFAFF30080AFF3008091
:1010A0004FF48053C4F202031A68194642F0010259
:1010B0001A600A684FF480539207C4F20203F8D50D
:1010C0001968002201F0F901196019465A604A684E
:1010D0004FF4805312F00C0FC4F20203F7D11A68D8
:1010E000194642F480321A600A684FF48053900324
:1010F000C4F20203F8D55A68194642F480325A60A5
:101100001A6842F080721A600A684FF480539201A4
:10111000C4F20203F8D54FF40052C4F202021021C7
:101120004FF480305860116059681A4641F002014E
:101130005960536803F00C03082BFAD1704700BFC5
:1011400038B50246202383F3118840F6D803C2F253
:1011500000039C69A06A04F12805A842626206D0D7
:101160000368A36201F084F8A06AA842F8D194F859
:1011700022304BB994F82130990701BF2269636985
:101180001A61226908BF53610F20BDE8384001F0A1
:1011900057B800BFAFF30080AFF30080AFF300801B
:1011A00040F6D802C2F20002106870B40368956974
:1011B00001260021AC6813605A6080F820609061BD
:1011C00085F8201000E01B689A68A242FBD85A6894
:1011D00029462B606A6015605D6070BCFFF73AB805
:1011E000F0B4134E002506F17007A6F110011AC9DC
:1011F000A3420DD204391A4651F8040F42F8040BE9
:10120000A242F9D3DA43144424F0030404342344FF
:1012100056F8042C934203D243F8045B9342FBD369
:10122000BE4206F1100301D21E46DEE7F0BC704755
:10123000C02C0008AFF30080AFF30080AFF3008054
:10124000FEE700BFAFF30080AFF30080AFF3008094
:10125000704700BFAFF30080AFF30080AFF30080B2
:10126000704700BFAFF30080AFF30080AFF30080A2
:1012700070B4202383F3118842F63C53027AC0F6FF
:101280000003002908BF1946012A2CD00C684FF42E
:101290005852CE880D89436F8988C0F26E12B2FB16
:1012A000F4F29A6046F0400641F4045245F001051C
:1012B000B6B2ADB242F02C0200241E6101F4A0517E
:1012C0005D61DA601C601A68B1F5806F5B680CBF05
:1012D0007F23FF2380F8783002230372002383F3F7
:1012E000118870BC704740F65003C2F20003984268
:1012F00019D040F69023C2F200039842C6D14FF4B1
:101300008052C4F20202D6694FF46143CEF2000368
:10131000802446F48026C025D66183F82753C3F87D
:1013200084415C60B2E74FF48052C4F20202D66995
:101330004FF46143CEF20003402446F40036C0254A
:10134000D66183F82653C3F884415C609EE700BFF2
:1013500040F6D803C2F20003DA69F0B482420FD03B
:10136000026841681C330A60026800249A42516096
:10137000C46003D0018913890B441381F0BC70470A
:101380001168184640F81C1F81424FF0000408BF46
:101390004FF080434860D46008BFDC60EED04FF06F
:1013A0008040476A1689DC8C0D89BAB27319141B08
:1013B0009BB2A4B2A3420B81E0D91B1B9BB2012BB1
:1013C00098BF022313449BB24363D7E7AFF3008077
:1013D000F0B440F6D804C2F20004254655F81C3F8C
:1013E0004FF08047D7F824C041F62126C0F600060A
:1013F000012998BF0221AB420261C6601FFA8CF23C
:1014000026D0E68C951B4A1992B2AA4219891ADB9A
:101410008A423EBF9519ADB27D638A4205D91B68E9
:10142000521A198992B29142F9D359680360416006
:1014300008605860028118894FF6FF71821A1A817C
:10144000A184F0BC70471B68521A92B21989E4E774
:1014500001EB020C1FFA8CFC00260225E284E061FD
:101460002062036043600181C7F834C03E61FD60C3
:10147000E7E700BFAFF30080AFF30080AFF3008079
:1014800030B54FF6FF73994287B0054613D040F64A
:10149000D804C2F20004A26901A8FFF799FF284608
:1014A00000F0CEFE049B13B101A8FFF751FFA36922
:1014B000586A07B030BD00F0C3FE40F6D804C2F24F
:1014C0000004A369586A07B030BD00BFAFF30080C5
:1014D00008B50146202383F311880820FFF7D0FFC9
:1014E000002383F3118808BDAFF30080AFF30080C1
:1014F00010B4024671B140F6D803C2F2000344684A
:101500009B69042083E81400236053605DF8044B5A
:10151000FFF7B6BF4FF0FF305DF8044B704700BFD8
:1015200070B5202304460E4683F3118803E0FFF7CD
:10153000DFFF00281BDBA56820463146002DF6D0D2
:10154000A2692169531CA0688B42A36100F1FF309E
:1015500028BFE368A060157828BFA361E3690BB1D9
:1015600020469847002383F31188284670BD85F3F1
:10157000118870BDAFF30080AFF30080AFF300803F
:101580000C30FFF7CDBF00BFAFF30080AFF300809A
:101590000C304FF6FF71FFF7C3BF00BFAFF3008001
:1015A0002DE9F04F984683B0044689461546C76931
:1015B000202383F311884FF080435A6A08F1FF3BE0
:1015C000424492B2002601921FFA8BFBA3680BB330
:1015D000A369A1685A1C0139A261A1601B7809F1B5
:1015E000010A89F800302369A2699A4224BFE3689E
:1015F000A3610FB12046B847002383F31188013D52
:1016000006F101061AD0202282F31188A368D14680
:10161000002BDDD14FF6FD72934513D84FF0804279
:10162000516A019A511A89B2884505D32046FFF7BD
:101630005FFF0028CAD0002383F31188304603B02F
:10164000BDE8F08F20464146FFF752FF0028BDD08D
:10165000F1E700BFAFF30080AFF30080AFF300808D
:101660000C30FFF79DBF00BFAFF30080AFF30080E9
:101670000C304FF6FF73FFF793BF00BFAFF300804E
:10168000F8B504460F461646202383F3118803E07D
:10169000FFF72EFF00281ADBA56820463146002DF3
:1016A000F6D06369A1685A1C01396261A1601F709C
:1016B000236962699A4224BFE3686361E3690BB1FD
:1016C00020469847002383F311880020F8BD85F356
:1016D0001188F8BDAFF30080AFF30080AFF3008056
:1016E0003030FFF7CDBF00BFAFF30080AFF3008015
:1016F00030304FF6FF72FFF7C3BF00BFAFF300807B
:101700002DE9F04F984683B0044689461546C769CF
:10171000202383F311884FF080435A6A08F1FF3B7E
:101720004244002692B201921FFA8BFBB246A36894
:10173000FBB16369A1685A1C01396261A16099F823
:10174000002009F101091A70236962699A4224BFD5
:10175000E36863610FB12046B8478AF31188013D01
:1017600006F1010619D0202383F31188A368002B0A
:10177000DFD14FF6FD72934513D84FF08042516A86
:10178000019A511A89B2884505D32046FFF7B0FE69
:101790000028CCD0002383F31188304603B0BDE885
:1017A000F08F20464146FFF7A3FE0028BFD0F1E7A7
:1017B0003030FFF7A5BF00BFAFF30080AFF300806C
:1017C00030304FF6FF73FFF79BBF00BFAFF30080D1
:1017D000F8B5E024002304848360446B83F311880C
:1017E000056BC36A6D68876A5B68D0F824C0002601
:1017F0002F60E9604FF080476A60C3F800C0DE6088
:101800005E607D6A3946ADB2202201E086F3118820
:1018100082F31188A3699B0702D423689F0507D52B
:101820004B6A5B1B9BB2312BF0D94FF0FF30F8BDF8
:10183000636840F6D80543F4007363602268C2F21F
:101840000005AB6942F48072226040F81C3F586288
:10185000032000F0F5FCAB69586AF8BDAFF30080D7
:10186000F8B540F6D806C2F20006B069202383F32B
:10187000118840F65824C2F20004274657F80C5F3E
:10188000A369BD4283633FD0C16B4BB11A689342D9
:1018900003D09268914238BF1146DB68002BF5D126
:1018A0002B68AA6B8160E36028465F606561A26176
:1018B000AF6300F0DDFC3068B5698368AC6840F662
:1018C000D802A342C2F2000203D8002383F3118896
:1018D000F8BD0368012600215A60136080F820607B
:1018E000906185F8201000E01B689A689442FBD351
:1018F0005A6829462B606A6015605D60FEF7AAFC95
:10190000002383F31188F8BD00236361002383F370
:101910001188F8BDAFF30080AFF30080AFF3008013
:10192000F0B4002B08BF0B4600F10B0700F10A05CD
:10193000B1FBF2F602FB161101F13004392CC8BFDD
:1019400001F13704E4B2B3FBF2F331462E4605F859
:101950000149002BECD1BA1B3346024401E013F8D5
:10196000014F00F8014B9042F9D1F0BC704700BF25
:101970004FF49043C4F20003DA6842F08002DA6068
:10198000704700BFAFF30080AFF30080AFF300807B
:101990004FF48843C4F20003DA6842F08002DA6050
:1019A000704700BFAFF30080AFF30080AFF300805B
:1019B000EFF30983203383F30988002383F311882D
:1019C000704700BFAFF30080AFF30080AFF300803B
:1019D00030B4202383F3118840F64813C2F2000389
:1019E0001D684C1E2A4422444942044402EA010074
:1019F00021405A680144914207D88D4205D81960A8
:101A0000002383F3118830BC70470020002383F348
:101A1000118830BC704700BFAFF30080AFF3008087
:101A200010B4202383F3118890F82030072B0ED8B0
:101A3000DFE803F02B0D0D2708040D08436A9A68B0
:101A400001329A6090E80C001A60026853604FF00F
:101A5000FF34002240F6D8038168446280F82020D9
:101A6000C2F200031B689A688A42FBD25A680021BE
:101A7000036042601060586081F311885DF8044B88
:101A80007047436A00221A60E1E7002383F311885C
:101A90005DF8044B704700BFAFF30080AFF30080E8
:101AA000FEE700BFAFF30080AFF30080AFF300802C
:101AB0002DE9F00342F648530446C0F6000344F80B
:101AC000043B002700F1640300F1540200F10C060E
:101AD00000F130054FF001094FF0100800F1740CCF
:101AE0004761446080F808908762C0F83880C6601B
:101AF000066105634563C062C1640065C0F840C00B
:101B0000826142620262C361C36383644364BDE86D
:101B1000F0037047AFF30080AFF30080AFF30080B5
:101B2000F0B4457C012606FA05F740F6CC03C2F274
:101B300000031C68274218BF304643D140F6180600
:101B4000C2F2000606EBC50746F835107A60620659
:101B500002BF4FF48052C4F202025569076804BF05
:101B600045F00105556142684FF00E0C156825F0EF
:101B70000F051560067C85680CFA06FC2C424FF0B8
:101B80000006C7F804C0166015D1A1B1827C0125FA
:101B900002F01F018D405109890001F1604102F1FD
:101BA000604201F5614102F56142502682F800630E
:101BB000C1F880510D60427C012101FA02F2144308
:101BC0001C600020F0BC7047AFF30080AFF30080D2
:101BD000002330B41A461C461946082510F0800F21
:101BE0004FEA01114FEA02124FEA04144FEA0313BD
:101BF0000CBF41F00F0142F00F0210F4004F0CBF78
:101C000044F00F0443F00F03013D4FEA4000E5D1DB
:101C10004FF44060C4F2010045682C402343436008
:101C2000036830BC19400A4302607047AFF300807C
:101C30000EB42DE9F04F92B00CAC0394039C0DF15F
:101C4000310C1BABCDF808C0C4EB0C0C53F8046B83
:101C5000CDF81CC042F6705C40F6500BC0F6000C8C
:101C600000240B939A46C2F2000BCDF818C00494DE
:101C70003178731CA1B1252918D0DDF810C0DBF82C
:101C8000002040F650001E460CF1010C9268C2F292
:101C90000000CDF810C090473178731C0029EAD1BC
:101CA000049812B0BDE8F04F03B07047727800247A
:101CB0002D2A03BFB278B31C01270027302A03BFA7
:101CC0005A780133302520251E4608E09AF8003066
:101CD0000AF1040A04EB8404327803EB4404A2F111
:101CE0003003DBB2092B06F10106F3D92A2AEDD025
:101CF0002E2A4FF000034BD002F0DF014C2956D1C1
:101D00003178012011B101360A460120A2F14401C7
:101D1000342900F25381DFE811F0B700510151017D
:101D200051015101B70051015101510151015101BE
:101D3000B5005101510151015101510152005101B0
:101D400051014F0151015101510151015101510105
:101D500051015101510151014201B7005101EC0003
:101D600051015101B700510151015101510151017E
:101D7000B500510151015101C700510152005101FB
:101D800051014F019AF800100AF1040A01EB4003D7
:101D900016F8012B03EB8300A2F13001C9B2092927
:101DA000F4D92A2AEED002F0DF014C29A8D0A2F102
:101DB0004100C0B219288CBF00200120A6E70A22EA
:101DC000DAF800100CA80AF1040A0023FFF7A8FDB6
:101DD000DDF80CC00CAACCEB000000F1FF39059235
:101DE000241A24EAE474FFB96442ECB1DDF814C0AB
:101DF00040F650089CF800102D2900F0E780C2F250
:101E000000082746D8F8003040F650009B68C2F220
:101E10000000294698470137F4D1DDF810C0C4EB23
:101E20000C0CCDF810C03C46B9F1000F15DB059A3B
:101E30009046571EC844DBF8003017F8011F40F6E3
:101E400050009B68C2F2000098474745F3D1DDF887
:101E500010C00CF101034B440493002C3FF408AF75
:101E60002746DBF8003040F650009B68C2F20000C5
:101E700029469847013FF4D1DDF810C0A444CDF8BD
:101E800010C0F5E608229BE7DAF800100A220029C4
:101E9000B8BF2D230AF1040ABDBF49428DF8303086
:101EA0000DF131000CA890E7DAF8000042F6685214
:101EB000C0F60002002808BF10460590007847F6DB
:101EC000FF720AF1040A002B08BF1346002800F035
:101ED000A180059A134402E0934200F08D8051786E
:101EE00001320029F8D1059B2025D01A00F1FF39D5
:101EF00076E70AF1070A2AF0070ADAE900010193F6
:101F0000FEF7AEFD00218146FEF748FE0AF1080A01
:101F1000019B0DF13008002874D1DDF818C0013B99
:101F2000082B28BF08235CF8233048460593FEF7AA
:101F30005DFE84460A22614640460023FFF7F0FC1E
:101F40002E23804608F8013B4846CDF804C0FEF732
:101F5000F9FADDF804C0CDE908016046FEF7E0FAC1
:101F600002460B46DDE90801FEF78CF9CDE90801D0
:101F70000598FEF7C5FA02460B46DDE90801FEF7B3
:101F800035FBFEF745FD4CF6CD4301460598CCF6F2
:101F9000CC43A3FB00030A224046DB0816E7DAF82D
:101FA000003007980CAA8DF830300AF1040A00F1CD
:101FB000FF392025059213E7102201E707980CABA3
:101FC0008DF8302000F1FF39059309E7302D7FF4BB
:101FD00016AFDBF80030C2F2000840469B68984715
:101FE000059ADDF810C001320CF1010C0592CDF814
:101FF00010C009F1FF3904E7059A2025981A00F16D
:10200000FF39EDE62D2209F100498DF830200DF160
:10201000310882E74FF0FF392025E1E6AFF3008079
:10202000202383F311884FF46D43CEF200035B68E5
:1020300013F4006302D183F311887047EFF3098230
:102040004FF0807342F8043CA2F1200383F3098827
:1020500040F6D803C2F2000319689B6989689B683F
:1020600099428BBF40F2752340F27823C0F60003FB
:10207000C0F6000342F8083C704700BFAFF3008091
:102080000023C4F2020319688022C4F20202090E7E
:10209000126801F00E01114210B509D040F6180285
:1020A000C2F20002146B080658600CB1506BA047D6
:1020B000BDE81040FFF7B4BFAFF30080AFF300807E
:1020C0000023C4F2020319686C22C4F20202090D53
:1020D000126801F00E01114210B509D040F6180245
:1020E000C2F20002946A080558600CB1D06AA04799
:1020F000BDE81040FFF794BFAFF30080AFF300805E
:102100000023C4F2020319685822C4F20202090C27
:10211000126801F00E01114210B509D040F6180204
:10212000C2F20002146A080458600CB1506AA04759
:10213000BDE81040FFF774BFAFF30080AFF300803D
:102140000023C4F2020319684422C4F20202090BFC
:10215000126801F00E01114210B509D040F61802C4
:10216000C2F200029469080358600CB1D069A0471C
:10217000BDE81040FFF754BFAFF30080AFF300801D
:102180000023C4F2020319683022C4F20202090AD1
:10219000126801F00E01114210B509D040F6180284
:1021A000C2F200021469080258600CB15069A047DD
:1021B000BDE81040FFF734BFAFF30080AFF30080FD
:1021C0000023C4F2020319681C22C4F202020909A6
:1021D000126801F00E01114210B509D040F6180244
:1021E000C2F200029468080158600CB1D068A047A0
:1021F000BDE81040FFF714BFAFF30080AFF30080DD
:102200000023C4F2020308221968C4F20202126811
:1022100001F00E01114210B508D040F61802C2F2CA
:102220000002146859600CB15068A047BDE8104026
:10223000FFF7F6BEAFF30080AFF30080AFF300808E
:1022400040F6D803C2F2000330B41A6899691468E2
:10225000012581F82000636082F820501C60104640
:1022600030BC9A61FDF7F6BFAFF30080AFF300809A
:10227000002240F6D803816810B4C2F2000304467D
:1022800080F820201B689A688A42FBD25A68204650
:102290002360626014605C605DF8044B704700BFAF
:1022A00038B540F65823C2F200035C6B0821A269DE
:1022B0006569C0F2030145EA024222F07F428A4288
:1022C00054D022D80121C0F203018A4242D0022117
:1022D000C0F203018A4210D16268DB6A22F4007204
:1022E0005B6862601A6842F001021A60626842F438
:1022F000805262605B68012B57D915F00A0F18BF36
:10230000A369BDE83840FFF78BBE8221C0F2070108
:102310008A4214D08421C0F207018A42EDD1DA6AE0
:10232000526852683AB3198C226841F0010142F4B4
:10233000A06219842260BDE83840FFF771BE626870
:102340001B6B22F400725B6862601A6842F0010243
:102350001A60D2E71B8C1A0A0BD003F0010343F07A
:10236000F00302F006021A432261C6E71B8CC3F396
:1023700047032361C1E76168202221F40071616095
:10238000216841F40071216082F31188D86940F618
:102390005823C2F2000320B100224262DA61FFF743
:1023A00067FF002383F31188A7E7236823F4806382
:1023B0002360A2E7AFF30080AFF30080AFF30080AB
:1023C000F8B504680746A0420D4620D0002602E07A
:1023D0002468A7421BD0E3682B43E36015B1226950
:1023E0001342F5D06068A268416B90F820300A4330
:1023F0000A2B42630CD00B2BEAD1436A1A4093425A
:10240000E6D14662FFF734FF2468A742E3D1F8BD66
:10241000436A1A42DCD04662FFF72AFFF4E700BFA6
:10242000F8B5826840F6D803C2F2000305469C69FD
:10243000002A55D0A16893688B4207D292F82030C9
:102440009160062B33D0072B1DD09BB12B4603E0A8
:102450009968A268914202D31B689D42F8D15A68DC
:102460002360626014605C6065620620BDE8F8402D
:10247000FFF7E6BE92E80A00196010461268536042
:10248000FFF7F6FEE2E713685068566A03601768C4
:102490003346786002E09868884202D31B689E4207
:1024A000F9D15968136051600A605A60CEE7136829
:1024B0005068566A036017683346786002E098688F
:1024C000884202D31B689E42F9D15968136051605B
:1024D0000A605A60B268A16893688B42AED3B5E7D0
:1024E000A36B8460C360A063F8BD00BFAFF300803E
:1024F000FEE700BFAFF30080AFF30080AFF30080D2
:102500004FF48053C4F2020300224FF0FF311869E8
:102510002DE9804819611A61D868D960DA60D869F4
:102520004FF4E04140F08050D861D869C4F2000116
:1025300040F00060D8610E6840F6CC0546F4807625
:10254000C2F2000542F6106440F618000E6083B037
:10255000134611462A60C0F60004C2F20000651856
:102560006D6814318C292A60C2504FF0000503F1C8
:102570000803F4D12B464FF0FF36C4F202034FF4A8
:1025800080595E60C4F20209D9F8183048F6880B09
:102590004FF4006048F2B84A44F6843E4FF440617C
:1025A00048F64404C4F20100C4F20101DC4643F0E1
:1025B0007D03C8F6880ACBF2B34ECBF2B34BC8F614
:1025C00088044FF4805748F633080194C4F2010799
:1025D000C9F81830CEF6886CC660C8F68808C0F80E
:1025E00004A0C0F800E0CE604FF08830C1F804B01D
:1025F0006FF4407BC1F800C04FF4A052C7F80CB094
:1026000040F65824C7F804803860019FC2F20004E5
:10261000DFF890E6C4F201024FF4C05340F6500ACE
:10262000D660C4F201035060C2F2000A17604FF492
:10263000A84C04F10C0241F69111DE6001275860AC
:10264000AEF1140B1860C4F2000CE2602261504637
:10265000C0F60001656140F69028C4F834C0C4F8A3
:102660002CE0C4F830B02770C2F200086560E56164
:10267000FFF71EFA4FF4884341F67111C4F20003CC
:102680004046C0F60001CAF87430FFF711FAD9F8D5
:102690001C204FF490433A43C4F200034FF400511E
:1026A000C8F87430CEF20401C9F81C20D1F804E057
:1026B00040F6D8034EF4006EC1F804E04FF08041BC
:1026C00045F6BF5EC1F828E040F638224FF6FF7E9F
:1026D0004FF4614BC2F20003C1F82CE0C2F20002D9
:1026E0008D61CEF2000B4D634FF0800ECD6041F650
:1026F000D11A4D6040F648104F6140F610390F6016
:1027000042F2000C4FF080518BF81CE3C0F6000A37
:10271000CBF88011C2F20000CBF80010C2F2000921
:1027200002F1100B03F11C019E84C2F2000C4FF465
:102730006D46CEF2000680E800129D60DD84C3F88D
:1027400034E083F84D509560D5609561C2F800A0E3
:10275000C2F810B0C2F814B0D96119621B605B6096
:10276000C3F868E083F84E7083F84C701D66F0681B
:102770004FF6FF014FF44072014042F6F857C0F2A5
:10278000FA5203F12C0003F1580E03F1540C0A43E2
:10279000C0F600074EF6F0511861586198615D6609
:1027A000DB631B649D645F64C3F854C0C3F858E0E6
:1027B000C3F85CE0CEF20001F260CA684FF48053C7
:1027C00042F08072CA60CEF200031868102140F017
:1027D000010020221860F17786F8222085F3118805
:1027E00062B6202383F3118840F6D80BC2F2000BA7
:1027F00040F65013C2F200030120DBF818E0C3F8E2
:10280000980041F6A12740F26526DEF808C0DBF803
:10281000149003F16C02C0F60007C0F6000642F601
:10282000945503F19001C3F89C20DF660022C3F8A1
:102830008C604FF0020A03F1BC06C0F6000503F1FC
:10284000B807C3F8A490C3F8AC30C3F8A0B083F8BD
:10285000B0A0C3F8A850C3F8CC0083F8B2001A6740
:1028600083F8B120C3F8C820C3F8C420C9F81010F9
:10287000CBF81410C3F8B420C3F8B870C3F8BC6028
:10288000C3F8C060BCF1000F00F0C08183F8B02035
:102890005A4612689768002FFBD15068C3F8902001
:1028A000C3F894000160516087F3118840F650002E
:1028B00040F60001C2F20000C2F20001FEF7D8FCAF
:1028C00040F6902040F60C01C2F20000C2F2000176
:1028D000FEF7CEFC202383F3118894F800A042F683
:1028E0009C60666BC0F6000040F65825BAF1010FF7
:1028F0006060C2F2000518BF324642D19A228A2394
:102900004FF480596B62C4F20209AA62D9F8102010
:10291000002342F4001240F69141C9F81020C0F69D
:102920000001C9F810302A46E86AFFF7F9F840F6C6
:102930004141C0F600012A46286BFFF7F1F8D9F8AB
:102940001C004FF46143CEF2000350224FF00041CF
:1029500040F40010C9F81C0083F81F23C3F880114D
:10296000196083F82023C3F884A1C3F804A06A6A1D
:10297000AB6A42F4405143F4405368686A6B696241
:10298000AB62E16A236BD1F80490D3F804C04FF432
:10299000004E06F1100300254FF41061C9F808300D
:1029A000CCF80830C6F800E03560716053684FF627
:1029B000C0711940057A43685160D2F804E048F2CA
:1029C000A061C0F201014EF0180E8B42C2F804E083
:1029D00040F348814FF4D451C0F206018B4219DC18
:1029E000022D00F04B81032D01BF4FF4585103EB32
:1029F0008303C0F26E1103EB830301BF91FBF3F17C
:102A00006FEA81476FEA9747BFB218BF48F6FF7772
:102A100008231362D7610178136802299BB200F082
:102A20001B81032908BF43F00A0305D0012902BF17
:102A300023F00A031B041B0C13603368022243F0CB
:102A4000010333600023227083F311884020FFF7D5
:102A5000BFF88020FFF7BCF840F630268E4AC2F25D
:102A6000000640F6D00740F62829B246A2F11C0520
:102A7000C2F20007C2F2000900215122022389F8A4
:102A8000003039707A70202383F311888348FFF770
:102A9000C7FC002383F31188202383F3118840F6B9
:102AA000582040F6D00103234FF0000EC2F200017F
:102AB0000222C2F200002370C4F808E0FEF788FE8C
:102AC00001300CBF052302232B70002383F31188F0
:102AD000FEF7C6FE4620FEF7FBFC202383F3118899
:102AE0006E48FFF79DFC002383F31188202383F3B6
:102AF000118840F6582040F6282103234FF0000E9D
:102B0000C2F200010122C2F200002370C4F808E002
:102B1000FEF75EFE01300CBF052302232B7000235D
:102B200083F31188FEF79CFE202383F311885B4812
:102B3000FFF776FC002383F31188202383F31188A9
:102B40000421E122002322842170A360626B83F3BD
:102B50001188EB6A696A5B68022419604FF0804053
:102B6000C3F80CA05C60436A40F658241FFA83FE49
:102B7000C2F2000420214FF0000C01E08CF3118818
:102B800081F3118893699B0702D413689B054BD589
:102B9000436ACEEB03039BB2312BEFD905232B7095
:102BA000002383F31188FEF75BFE7378327840F6DA
:102BB000500043EA022242F69C5112B2C0F60001D4
:102BC000C2F20000FFF734F84FF4FA70FEF780FC11
:102BD0004FF4FA70FEF77CFC202383F31188002267
:102BE000D8F8143082F311889BB14FF6FF712C484E
:102BF000FEF796FC42F6B451C2B240F65000C0F661
:102C00000001C2F20000FFF713F835E78EF820C08C
:102C1000FEE740F6500042F6C851C0F60001C2F28D
:102C20000000FFF705F827E75168DBF8183041F49A
:102C3000007151601168032041F4A0611160164ACF
:102C4000EB615A62FFF7FCFADBF818305B6A01337C
:102C5000A4D002232B70A3E74FF6F771194041F07F
:102C60000203E9E64FF458515B00C0F26E1191FB8C
:102C7000F3F11923C1F30B071362CBE64FF458515C
:102C800003EB4303C0F26E1191FBF3F16FEA41478E
:102C90006FEA5747BFB2BBE6740A0020640A0020FF
:102CA0009C0A0020882E0008AFF30080AFF300805C
:102CB000C02E00080C0B00200C0B00200C0B002079
:102CC000C02E00080000000000000000000000000E
:102CD000C02E0008000000000000000000000000FE
:102CE000C02E0008000000000000000000000000EE
:102CF000C02E0008000000000000000000000000DE
:102D0000C02E0008000000000000000000000000CD
:102D1000C02E0008000000000000000000000000BD
:102D2000C02E0008000000000000000000000000AD
:102D3000444D41206661696C7572650000C20100F6
:102D40000000000000000000C11700087116000814
:102D5000F116000891150008E11600088115000819
:102D6000B117000861160008286E756C6C29000008
:102D70000A00000064000000E803000010270000C3
:102D8000A086010040420F008096980000E1F50502
:102D900000CA9A3B69646C6500000000456C2072B3
:102DA0006573756C7461646F2065733D2025640ADA
:102DB0000D000000456C2076616C6F722065733DDC
:102DC0002025640A0D00000054616C207665732094
:102DD000646562657269617320636F6E73696465AF
:102DE00072617220736572207461786973746120F6
:102DF0003A2776200A0D00006D61696E00160220E8
:102E0000040244080C1014181C20212200000000A9
:102E10000000024008000240010000000000000025
:102E200000000B00000002401C00024002000000F5
:102E30000000000004010C000000024030000240CD
:102E4000040000000000000008020D000000024025
:102E50004400024008000000000000000C030E00C7
:102E60000000024058000240100000000000000076
:102E700010040F00000002406C000240200000001F
:102E80000000000014051000000002408000024015
:102E900040000000000000001806110001000000C2
:082EA000A08601000100000002
:102EA800802500000014004000000000802500007C
:082EB8000014004000000000BE
:04000005080001816D
:00000001FF
